:020000020000FC
:1000000000C00FE50DBF08E00EBF0FE00ABB00EF18
:100010000BBB0FEF07BBA09AA19AA29AA49AA59A2C
:10002000A69AA79AA898A998AA98AC98AD98AE98BD
:10003000AF988A9A929803E309B9002700BD00E1BE
:100040000AB906E800BDABD008E397D00CE095D024
:1000500006E093D001E091D0A2D020E070E080E0F3
:100060005F9BFECF1CB11A3AD9F75F9BFECF3CB124
:100070005F9BFECF4CB10EEF0BBB0000000009B33D
:1000800004FD08C0813039F081E001E070272FEFD6
:1000900070D001C080E0AE98AF98403618F0473677
:1000A00018F403C0AE9A01C0AF9AAC98AD9832383C
:1000B00018F0343818F403C0AC9A01C0AD9A71300E
:1000C00029F0AC990EC0AD9912C005C0AE9915C00B
:1000D000AF9919C000C0203009F4C2CF20E049D048
:1000E000BFCF213009F4BCCF21E01DD0B9CF2230E1
:1000F00009F4B6CF22E00DD0B3CF233009F4B0CF4E
:1001000023E019D0ADCF243009F4AACF24E021D0C8
:10011000A7CF2FD003E43AD00FE438D00CE436D088
:1001200004E434D0089525D008E430D00FE42ED074
:1001300004E52CD008951DD009E428D00EE426D083
:1001400004E524D001E422D00BE420D005E41ED045
:1001500008950FD005E41AD008E518D008E416D0A9
:1001600001E414D005E512D003E510D004E50ED06B
:10017000089501E002D013D0089508BBA898A9986B
:10018000AA9A00000000AA9811D0089508BBA89A66
:10019000A998AA9A00000000AA9808D008955FEFD5
:1001A00064E15A95F1F76A95E1F708955FEF5A9582
:0401B000F1F70895C6
:00000001FF
