:020000020000FC
:1000000000C00FE50DBF08E00EBFB89AB99AC098BE
:10001000C1980CE801BB929803E309B9002700BD21
:1000200008E00AB906E800BD00E407B907E806B928
:1000300002E000B900E001B9C09A979A82D0C09856
:100040009798C19A939A7DD0C19893982CEE3DEEE3
:100050006ED0003651F02EEE3FEE69D0003629F01A
:10006000C09A76D0C09874D0FBCF79D0022F80D0C0
:1000700002EF7ED001E07CD078D071D0022F78D012
:1000800004EF76D003E274D070D069D0022F70D024
:100090000AEF6ED064D0032F6BD071D0602F65D083
:1000A0005ED0022F65D00DEF63D059D0032F60D002
:1000B00066D0702F5AD0369A369BFECF44B155B1D8
:1000C0009798939815D021D029D002D03AD0DDCF7F
:1000D000929A5D9BFFCF0AEA0CB95D9BFECF6CB98B
:1000E0005D9BFECF7CB95E9BFECF5E9A9298089591
:1000F000623828F0643830F4C098C1980895C09AE6
:10010000C1980895C098C19A0895703618F077364E
:1001100018F40895939A0895979A08958AE090E0C4
:100120004817590708F40895979A939A089517D095
:10013000022F1ED000ED1CD012D0032F19D01FD0DB
:1001400008954FEF58E24A95F1F75A95E1F708956F
:100150004FEF55E04A95F1F75A95E1F7089504EA13
:1001600006BF06B707FFFDCF089504E906BF08954F
:1001700003B904E806BF06B707FFFDCF089504E8FA
:1001800006BF06B707FFFDCF03B10895039538CF2B
:00000001FF
